{
  "contractName": "transferTest",
  "abi": [
    {
      "inputs": [],
      "stateMutability": "nonpayable",
      "type": "constructor"
    },
    {
      "inputs": [],
      "name": "USDc",
      "outputs": [
        {
          "internalType": "contract USDC",
          "name": "",
          "type": "address"
        }
      ],
      "stateMutability": "view",
      "type": "function"
    },
    {
      "inputs": [
        {
          "internalType": "address",
          "name": "",
          "type": "address"
        }
      ],
      "name": "balanceOf",
      "outputs": [
        {
          "internalType": "uint256",
          "name": "",
          "type": "uint256"
        }
      ],
      "stateMutability": "view",
      "type": "function"
    },
    {
      "inputs": [],
      "name": "owner",
      "outputs": [
        {
          "internalType": "address",
          "name": "",
          "type": "address"
        }
      ],
      "stateMutability": "view",
      "type": "function"
    },
    {
      "inputs": [
        {
          "internalType": "uint256",
          "name": "$USDC",
          "type": "uint256"
        }
      ],
      "name": "depositTokens",
      "outputs": [],
      "stateMutability": "nonpayable",
      "type": "function"
    },
    {
      "inputs": [],
      "name": "unstakeTokens",
      "outputs": [],
      "stateMutability": "nonpayable",
      "type": "function"
    }
  ],
  "bytecode": "0x608060405234801561001057600080fd5b50732058a9d7613eee744279e3856ef0eada5fcbaa7e6000806101000a81548173ffffffffffffffffffffffffffffffffffffffff021916908373ffffffffffffffffffffffffffffffffffffffff16021790555033600160006101000a81548173ffffffffffffffffffffffffffffffffffffffff021916908373ffffffffffffffffffffffffffffffffffffffff160217905550610500806100b56000396000f3fe608060405234801561001057600080fd5b50600436106100575760003560e01c806370a082311461005c5780638da5cb5b146100b4578063a5ce413b146100e8578063afcc4ad5146100f2578063dd49756e14610126575b600080fd5b61009e6004803603602081101561007257600080fd5b81019080803573ffffffffffffffffffffffffffffffffffffffff169060200190929190505050610154565b6040518082815260200191505060405180910390f35b6100bc61016c565b604051808273ffffffffffffffffffffffffffffffffffffffff16815260200191505060405180910390f35b6100f0610192565b005b6100fa610361565b604051808273ffffffffffffffffffffffffffffffffffffffff16815260200191505060405180910390f35b6101526004803603602081101561013c57600080fd5b8101908080359060200190929190505050610385565b005b60026020528060005260406000206000915090505481565b600160009054906101000a900473ffffffffffffffffffffffffffffffffffffffff1681565b6000600260003373ffffffffffffffffffffffffffffffffffffffff1673ffffffffffffffffffffffffffffffffffffffff1681526020019081526020016000205490506000811161024c576040517f08c379a00000000000000000000000000000000000000000000000000000000081526004018080602001828103825260138152602001807f62616c616e63652063616e6e6f7420626520300000000000000000000000000081525060200191505060405180910390fd5b60008054906101000a900473ffffffffffffffffffffffffffffffffffffffff1673ffffffffffffffffffffffffffffffffffffffff1663a9059cbb33836040518363ffffffff1660e01b8152600401808373ffffffffffffffffffffffffffffffffffffffff16815260200182815260200192505050602060405180830381600087803b1580156102dd57600080fd5b505af11580156102f1573d6000803e3d6000fd5b505050506040513d602081101561030757600080fd5b8101908080519060200190929190505050506000600260003373ffffffffffffffffffffffffffffffffffffffff1673ffffffffffffffffffffffffffffffffffffffff1681526020019081526020016000208190555050565b60008054906101000a900473ffffffffffffffffffffffffffffffffffffffff1681565b60008054906101000a900473ffffffffffffffffffffffffffffffffffffffff1673ffffffffffffffffffffffffffffffffffffffff166323b872dd3330620f424085026040518463ffffffff1660e01b8152600401808473ffffffffffffffffffffffffffffffffffffffff1681526020018373ffffffffffffffffffffffffffffffffffffffff1681526020018281526020019350505050602060405180830381600087803b15801561043957600080fd5b505af115801561044d573d6000803e3d6000fd5b505050506040513d602081101561046357600080fd5b810190808051906020019092919050505050620f42408102600260003373ffffffffffffffffffffffffffffffffffffffff1673ffffffffffffffffffffffffffffffffffffffff168152602001908152602001600020600082825401925050819055505056fea26469706673582212203fbe0aaeefca680f577e6448462768b0b29d4bc1389e40f3881c13680c5d778f64736f6c634300060c0033",
  "immutableReferences": {},
  "source": "pragma solidity >0.6.0;\n\ninterface USDC {\n    function transfer(address recipient, uint256 amount) external returns (bool);\n    function transferFrom(address sender, address recipient, uint256 amount) external returns (bool);\n    function balanceOf(address account) external view returns (uint256);\n    function approve(address spender, uint256 amount) external returns (bool);\n    function allowance(address owner, address spender) external view returns (uint256);\n}\n\ncontract transferTest {\n    USDC public USDc;\n    address public owner;\n    mapping(address => uint256) public balanceOf;\n\n    constructor() public {\n        USDc = USDC(0x2058A9D7613eEE744279e3856Ef0eAda5FCbaA7e);\n        owner = msg.sender;\n    }\n\n    function depositTokens(uint $USDC) public {\n        USDc.transferFrom(msg.sender, address(this), $USDC * 10 ** 6);\n        balanceOf[msg.sender] += $USDC * 10 ** 6;\n    }\n\n    //unstake (customer can withdraw)\n    function unstakeTokens() public {\n        uint256 balance = balanceOf[msg.sender];\n\n        require (balance > 0, \"balance cannot be 0\");\n        USDc.transfer(msg.sender, balance);\n        balanceOf[msg.sender] = 0;\n    }\n}",
  "sourcePath": "/Users/samjohnson/CartFi/CartFi/contracts/Deposit.sol",
  "compiler": {
    "name": "solc",
    "version": "0.6.12+commit.27d51765.Emscripten.clang"
  },
  "schemaVersion": "3.4.12",
  "updatedAt": "2023-02-20T15:36:30.325Z",
  "devdoc": {
    "kind": "dev",
    "methods": {},
    "version": 1
  },
  "userdoc": {
    "kind": "user",
    "methods": {},
    "version": 1
  }
}